{
  "_format": "hh-sol-artifact-1",
  "contractName": "Marketplace",
  "sourceName": "contracts/Market.sol",
  "abi": [
    {
      "inputs": [
        {
          "internalType": "uint256",
          "name": "_feePercent",
          "type": "uint256"
        }
      ],
      "stateMutability": "nonpayable",
      "type": "constructor"
    },
    {
      "inputs": [],
      "name": "ReentrancyGuardReentrantCall",
      "type": "error"
    },
    {
      "anonymous": false,
      "inputs": [
        {
          "indexed": false,
          "internalType": "uint256",
          "name": "itemId",
          "type": "uint256"
        },
        {
          "indexed": true,
          "internalType": "address",
          "name": "nft",
          "type": "address"
        },
        {
          "indexed": false,
          "internalType": "uint256",
          "name": "tokenId",
          "type": "uint256"
        },
        {
          "indexed": false,
          "internalType": "uint256",
          "name": "price",
          "type": "uint256"
        },
        {
          "indexed": true,
          "internalType": "address",
          "name": "seller",
          "type": "address"
        },
        {
          "indexed": true,
          "internalType": "address",
          "name": "buyer",
          "type": "address"
        }
      ],
      "name": "Bought",
      "type": "event"
    },
    {
      "anonymous": false,
      "inputs": [
        {
          "indexed": false,
          "internalType": "uint256",
          "name": "itemId",
          "type": "uint256"
        },
        {
          "indexed": true,
          "internalType": "address",
          "name": "nft",
          "type": "address"
        },
        {
          "indexed": false,
          "internalType": "uint256",
          "name": "tokenId",
          "type": "uint256"
        },
        {
          "indexed": false,
          "internalType": "uint256",
          "name": "price",
          "type": "uint256"
        },
        {
          "indexed": true,
          "internalType": "address",
          "name": "seller",
          "type": "address"
        }
      ],
      "name": "Offered",
      "type": "event"
    },
    {
      "inputs": [],
      "name": "feeAccount",
      "outputs": [
        {
          "internalType": "address payable",
          "name": "",
          "type": "address"
        }
      ],
      "stateMutability": "view",
      "type": "function"
    },
    {
      "inputs": [],
      "name": "feePercent",
      "outputs": [
        {
          "internalType": "uint256",
          "name": "",
          "type": "uint256"
        }
      ],
      "stateMutability": "view",
      "type": "function"
    },
    {
      "inputs": [
        {
          "internalType": "uint256",
          "name": "_itemId",
          "type": "uint256"
        }
      ],
      "name": "getTotalPrice",
      "outputs": [
        {
          "internalType": "uint256",
          "name": "",
          "type": "uint256"
        }
      ],
      "stateMutability": "view",
      "type": "function"
    },
    {
      "inputs": [],
      "name": "itemCount",
      "outputs": [
        {
          "internalType": "uint256",
          "name": "",
          "type": "uint256"
        }
      ],
      "stateMutability": "view",
      "type": "function"
    },
    {
      "inputs": [
        {
          "internalType": "uint256",
          "name": "",
          "type": "uint256"
        }
      ],
      "name": "items",
      "outputs": [
        {
          "internalType": "uint256",
          "name": "itemId",
          "type": "uint256"
        },
        {
          "internalType": "contract IERC721",
          "name": "nft",
          "type": "address"
        },
        {
          "internalType": "uint256",
          "name": "tokenId",
          "type": "uint256"
        },
        {
          "internalType": "uint256",
          "name": "price",
          "type": "uint256"
        },
        {
          "internalType": "address payable",
          "name": "seller",
          "type": "address"
        },
        {
          "internalType": "bool",
          "name": "sold",
          "type": "bool"
        }
      ],
      "stateMutability": "view",
      "type": "function"
    },
    {
      "inputs": [
        {
          "internalType": "contract IERC721",
          "name": "_nft",
          "type": "address"
        },
        {
          "internalType": "uint256",
          "name": "_tokenId",
          "type": "uint256"
        },
        {
          "internalType": "uint256",
          "name": "_price",
          "type": "uint256"
        }
      ],
      "name": "makeItem",
      "outputs": [],
      "stateMutability": "nonpayable",
      "type": "function"
    },
    {
      "inputs": [
        {
          "internalType": "uint256",
          "name": "_itemId",
          "type": "uint256"
        }
      ],
      "name": "purchaseItem",
      "outputs": [],
      "stateMutability": "payable",
      "type": "function"
    }
  ],
  "bytecode": "0x60c060405234801561001057600080fd5b506040516110f63803806110f6833981810160405281019061003291906100b7565b60016000819055503373ffffffffffffffffffffffffffffffffffffffff1660808173ffffffffffffffffffffffffffffffffffffffff16815250508060a08181525050506100e4565b600080fd5b6000819050919050565b61009481610081565b811461009f57600080fd5b50565b6000815190506100b18161008b565b92915050565b6000602082840312156100cd576100cc61007c565b5b60006100db848285016100a2565b91505092915050565b60805160a051610fdf610117600039600081816101e601526102970152600081816101bc01526104770152610fdf6000f3fe6080604052600436106100705760003560e01c8063bfb231d21161004e578063bfb231d2146100f6578063ca7dd37514610138578063d38ea5bf14610175578063fa00afc71461019157610070565b806365e17c9d146100755780636bfb0d01146100a05780637fd6f15c146100cb575b600080fd5b34801561008157600080fd5b5061008a6101ba565b6040516100979190610999565b60405180910390f35b3480156100ac57600080fd5b506100b56101de565b6040516100c291906109cd565b60405180910390f35b3480156100d757600080fd5b506100e06101e4565b6040516100ed91906109cd565b60405180910390f35b34801561010257600080fd5b5061011d60048036038101906101189190610a19565b610208565b60405161012f96959493929190610ac0565b60405180910390f35b34801561014457600080fd5b5061015f600480360381019061015a9190610a19565b610291565b60405161016c91906109cd565b60405180910390f35b61018f600480360381019061018a9190610a19565b6102f4565b005b34801561019d57600080fd5b506101b860048036038101906101b39190610b71565b61067c565b005b7f000000000000000000000000000000000000000000000000000000000000000081565b60015481565b7f000000000000000000000000000000000000000000000000000000000000000081565b60026020528060005260406000206000915090508060000154908060010160009054906101000a900473ffffffffffffffffffffffffffffffffffffffff16908060020154908060030154908060040160009054906101000a900473ffffffffffffffffffffffffffffffffffffffff16908060040160149054906101000a900460ff16905086565b600060647f000000000000000000000000000000000000000000000000000000000000000060646102c29190610bf3565b60026000858152602001908152602001600020600301546102e39190610c27565b6102ed9190610c98565b9050919050565b6102fc610908565b600061030782610291565b9050600060026000848152602001908152602001600020905060008311801561033257506001548311155b610371576040517f08c379a000000000000000000000000000000000000000000000000000000000815260040161036890610d26565b60405180910390fd5b813410156103b4576040517f08c379a00000000000000000000000000000000000000000000000000000000081526004016103ab90610db8565b60405180910390fd5b8060040160149054906101000a900460ff1615610406576040517f08c379a00000000000000000000000000000000000000000000000000000000081526004016103fd90610e24565b60405180910390fd5b8060040160009054906101000a900473ffffffffffffffffffffffffffffffffffffffff1673ffffffffffffffffffffffffffffffffffffffff166108fc82600301549081150290604051600060405180830381858888f19350505050158015610474573d6000803e3d6000fd5b507f000000000000000000000000000000000000000000000000000000000000000073ffffffffffffffffffffffffffffffffffffffff166108fc8260030154846104bf9190610e44565b9081150290604051600060405180830381858888f193505050501580156104ea573d6000803e3d6000fd5b5060018160040160146101000a81548160ff0219169083151502179055508060010160009054906101000a900473ffffffffffffffffffffffffffffffffffffffff1673ffffffffffffffffffffffffffffffffffffffff166323b872dd303384600201546040518463ffffffff1660e01b815260040161056d93929190610e87565b600060405180830381600087803b15801561058757600080fd5b505af115801561059b573d6000803e3d6000fd5b505050503373ffffffffffffffffffffffffffffffffffffffff168160040160009054906101000a900473ffffffffffffffffffffffffffffffffffffffff1673ffffffffffffffffffffffffffffffffffffffff168260010160009054906101000a900473ffffffffffffffffffffffffffffffffffffffff1673ffffffffffffffffffffffffffffffffffffffff167f8b4c9c8a607d67b321582dd8461041b1dc2ceeca70c8b7f37f8e02095cf2e76d868560020154866003015460405161066793929190610ebe565b60405180910390a4505061067961094e565b50565b610684610908565b600081116106c7576040517f08c379a00000000000000000000000000000000000000000000000000000000081526004016106be90610f41565b60405180910390fd5b600160008154809291906106da90610f61565b91905055508273ffffffffffffffffffffffffffffffffffffffff166323b872dd3330856040518463ffffffff1660e01b815260040161071c93929190610e87565b600060405180830381600087803b15801561073657600080fd5b505af115801561074a573d6000803e3d6000fd5b505050506040518060c0016040528060015481526020018473ffffffffffffffffffffffffffffffffffffffff1681526020018381526020018281526020013373ffffffffffffffffffffffffffffffffffffffff168152602001600015158152506002600060015481526020019081526020016000206000820151816000015560208201518160010160006101000a81548173ffffffffffffffffffffffffffffffffffffffff021916908373ffffffffffffffffffffffffffffffffffffffff160217905550604082015181600201556060820151816003015560808201518160040160006101000a81548173ffffffffffffffffffffffffffffffffffffffff021916908373ffffffffffffffffffffffffffffffffffffffff16021790555060a08201518160040160146101000a81548160ff0219169083151502179055509050503373ffffffffffffffffffffffffffffffffffffffff168373ffffffffffffffffffffffffffffffffffffffff167f655a0cf9c8db81512be9a76dc1c5ae5380b8816ce6ad659cd61b715e2999d59a60015485856040516108f393929190610ebe565b60405180910390a361090361094e565b505050565b600260005403610944576040517f3ee5aeb500000000000000000000000000000000000000000000000000000000815260040160405180910390fd5b6002600081905550565b6001600081905550565b600073ffffffffffffffffffffffffffffffffffffffff82169050919050565b600061098382610958565b9050919050565b61099381610978565b82525050565b60006020820190506109ae600083018461098a565b92915050565b6000819050919050565b6109c7816109b4565b82525050565b60006020820190506109e260008301846109be565b92915050565b600080fd5b6109f6816109b4565b8114610a0157600080fd5b50565b600081359050610a13816109ed565b92915050565b600060208284031215610a2f57610a2e6109e8565b5b6000610a3d84828501610a04565b91505092915050565b6000819050919050565b6000610a6b610a66610a6184610958565b610a46565b610958565b9050919050565b6000610a7d82610a50565b9050919050565b6000610a8f82610a72565b9050919050565b610a9f81610a84565b82525050565b60008115159050919050565b610aba81610aa5565b82525050565b600060c082019050610ad560008301896109be565b610ae26020830188610a96565b610aef60408301876109be565b610afc60608301866109be565b610b09608083018561098a565b610b1660a0830184610ab1565b979650505050505050565b6000610b2c82610958565b9050919050565b6000610b3e82610b21565b9050919050565b610b4e81610b33565b8114610b5957600080fd5b50565b600081359050610b6b81610b45565b92915050565b600080600060608486031215610b8a57610b896109e8565b5b6000610b9886828701610b5c565b9350506020610ba986828701610a04565b9250506040610bba86828701610a04565b9150509250925092565b7f4e487b7100000000000000000000000000000000000000000000000000000000600052601160045260246000fd5b6000610bfe826109b4565b9150610c09836109b4565b9250828201905080821115610c2157610c20610bc4565b5b92915050565b6000610c32826109b4565b9150610c3d836109b4565b9250828202610c4b816109b4565b91508282048414831517610c6257610c61610bc4565b5b5092915050565b7f4e487b7100000000000000000000000000000000000000000000000000000000600052601260045260246000fd5b6000610ca3826109b4565b9150610cae836109b4565b925082610cbe57610cbd610c69565b5b828204905092915050565b600082825260208201905092915050565b7f6974656d20646f65736e27742065786973740000000000000000000000000000600082015250565b6000610d10601283610cc9565b9150610d1b82610cda565b602082019050919050565b60006020820190508181036000830152610d3f81610d03565b9050919050565b7f6e6f7420656e6f75676820657468657220746f20636f766572206974656d207060008201527f7269636520616e64206d61726b65742066656500000000000000000000000000602082015250565b6000610da2603383610cc9565b9150610dad82610d46565b604082019050919050565b60006020820190508181036000830152610dd181610d95565b9050919050565b7f6974656d20616c726561647920736f6c64000000000000000000000000000000600082015250565b6000610e0e601183610cc9565b9150610e1982610dd8565b602082019050919050565b60006020820190508181036000830152610e3d81610e01565b9050919050565b6000610e4f826109b4565b9150610e5a836109b4565b9250828203905081811115610e7257610e71610bc4565b5b92915050565b610e8181610b21565b82525050565b6000606082019050610e9c6000830186610e78565b610ea96020830185610e78565b610eb660408301846109be565b949350505050565b6000606082019050610ed360008301866109be565b610ee060208301856109be565b610eed60408301846109be565b949350505050565b7f5072696365206d7573742062652067726561746572207468616e207a65726f00600082015250565b6000610f2b601f83610cc9565b9150610f3682610ef5565b602082019050919050565b60006020820190508181036000830152610f5a81610f1e565b9050919050565b6000610f6c826109b4565b91507fffffffffffffffffffffffffffffffffffffffffffffffffffffffffffffffff8203610f9e57610f9d610bc4565b5b60018201905091905056fea264697066735822122034729b268456b6e6447ad1ecdae1176b27656b0cf73ed543c3da42e3ff55a6e764736f6c63430008140033",
  "linkReferences": {},
  "deployedLinkReferences": {}
}